:1000000071C000008CC000008AC0000088C00000E1
:1000100086C0000084C0000082C0000080C00000D4
:100020007EC000007CC000007AC0000078C00000E4
:1000300076C0000074C0000072C0000070C00000F4
:100040006EC000006CC000006AC0000068C0000004
:1000500066C0000064C0000062C0000060C0000014
:100060005EC000005CC000005AC0000058C0000024
:1000700056C0000054C0000052C0000050C0000034
:100080004EC000004CC000004AC0000048C0000044
:1000900046C0000044C0000042C0000040C0000054
:1000A0003EC000003CC000003AC0000038C0000064
:1000B00036C0000034C0000032C0000030C0000074
:1000C0002EC000002CC000002AC0000028C0000084
:1000D00026C0000024C0000022C0000020C0000094
:1000E0001EC0000011241FBECFEFD1E2DEBFCDBF86
:1000F00012E0A0E0B2E0E4E8F7E000E00BBF02C0ED
:1001000007900D92A631B107D9F722E0A6E1B2E03F
:1001100001C01D92A032B207E1F7DBD031C370CF2E
:1001200090E0FC01E35FFD4F208121B9FC01EC5F11
:10013000FD4F808182B908950F931F93CF93DF9372
:100140008C018FEF84B917B888B98BEF85B9C3E0FC
:10015000D1E086B18E3F71F48C2FE2DF2FEF84E384
:100160009CE0215080409040E1F700C00000F80181
:10017000C083D18385B1869585B9C15051F78BEF86
:1001800085B9C6E0D1E086B18D3F71F48C2FC8DF10
:10019000FFEF24E38CE0F15020408040E1F700C005
:1001A0000000F801C083D18385B1869585B9C1501F
:1001B000C33049F78BEF85B9C9E0D1E086B18B3FF9
:1001C00071F48C2FADDFFFEF24E38CE0F150204081
:1001D0008040E1F700C00000F801C083D18385B101
:1001E000869585B9C150C63049F7DF91CF911F91EF
:1001F0000F910895CF92DF92EF92FF920F931F938A
:10020000CF93DF936894CC24C3F8D12C12C00C1781
:100210001D0711F08C2F84DF2197C9F781E0E81AC0
:10022000F10819F0C8E0D0E0F2CF81E0C81AD10897
:1002300041F086010F2EFAEBEF2EF2E2FF2EF02DA9
:10024000F1CFDF91CF911F910F91FF90EF90DF9051
:10025000CF900895CF92DF92EF92FF92C12CD12CD4
:10026000760188E05DDF87E05BDF86E059DF85E0CF
:1002700057DF20E030E040E85FE3C701B601F1D08E
:100280006B017C0120E030E64AE656E44ED188233B
:1002900044F3C12CD12C760184E042DF83E040DFBF
:1002A00082E03EDF81E03CDF20E030E040E85FE3D9
:1002B000C701B601D6D06B017C0120E030E64AE6EA
:1002C00056E433D1882344F3FF90EF90DF90CF9032
:1002D0000895CF93DF9300D01F92CDB7DEB7198278
:1002E0001A821B820F2EF8E14F2EF2E05F2EF02DC6
:1002F0000F2EF0E28F2EF2E09F2EF02DCE01019610
:100300005C01682E7B2C08E112E030B183B126B18C
:1003100090E0830F911D820F911DCAD1C6D18770C5
:100320009078992324F40197886F9F6F01968F5FCF
:10033000F80181938F01F4DE8016910631F78091E8
:10034000160290911702089761F0E12CF12C06C07B
:100350008091160290911702089719F0FF2084F4FB
:1003600064C0C501E9DE8A81882341F080E0D8DEDF
:100370001A821092170210921602C5CF3BDFF1CFFE
:100380008201C12CD12CF80181918F01C9DEFFEFD0
:1003900023ED80E3F15020408040E1F700C00000F1
:1003A00080E0BEDE9FEFE3EDF0E39150E040F040EF
:1003B000E1F700C000002FEFC21AD20AEC14FD04CE
:1003C00014F7C701875E9D4F6C0182012AC0862DFC
:1003D000972DB2DE9FEFE3ECF9E09150E040F04062
:1003E000E1F700C000008A81882389F31A8280E047
:1003F00097DEF80191918F018981981779F0C501F5
:100400009BDE8A81882341F080E08ADE1A82109286
:1004100017021092160277CF1DDFF1CFEC15FD0504
:1004200021F08A81882399F2E1CF80911602909180
:10043000170201969093170280931602FFEF25EAA8
:100440008EE0F15020408040E1F700C000009FEFB7
:10045000E91AF90AE8E0EE16F10409F079CF53CF72
:100460005058BB27AA270ED09FC090D030F095D00F
:1004700020F031F49F3F11F41EF485C00EF4E09596
:10048000E7FB7BC0E92FA1D080F3BA17620773079F
:100490008407950718F071F49EF5B9C00EF4E09545
:1004A0000B2EBA2FA02D0B01B90190010C01CA012E
:1004B000A0011124FF27591B99F0593F50F4503ED9
:1004C00068F11A16F040A22F232F342F4427585FCB
:1004D000F3CF469537952795A795F0405395C9F7E3
:1004E0007EF41F16BA0B620B730B840BBAF091509B
:1004F000A1F0FF0FBB1F661F771F881FC2F70EC03A
:10050000BA0F621F731F841F48F48795779567950C
:10051000B795F7959E3F08F0B3CF9395880F08F0F5
:100520009927EE0F97958795089503D008F481E0F9
:100530000895990F0008550FAA0BE0E8FEEF161674
:100540001706E807F907C0F012161306E407F507C7
:1005500098F0621B730B840B950B39F40A2661F03B
:10056000232B242B252B21F408950A2609F4A140DE
:10057000A6958FEF811D811D089597F99F6780E8EB
:1005800070E060E008959FEF80EC089500240A94E5
:100590001616170618060906089500240A9412165E
:1005A0001306140605060895092E0394000C11F491
:1005B000882352F0BB0F40F4BF2B11F460FF04C03E
:1005C0006F5F7F4F8F4F9F4F089557FD9058440F97
:1005D000551F59F05F3F71F04795880F97FB991FA2
:1005E00061F09F3F79F0879508951216130614065F
:1005F000551FF2CF4695F1DF08C0161617061806EC
:10060000991FF1CF86957105610508940895E894C6
:10061000BB2766277727CB0197F908958F929F9282
:10062000AF92BF92CF92DF92EF92FF92CF93DF9380
:10063000EC01688179818A819B8161157105810551
:10064000910521F464E279ED8BE597E02DE133EF3C
:1006500041E050E038D049015A019B01AC01A7EAC2
:10066000B1E44DD06B017C01ACEEB4EFA501940177
:1006700052D0DC01CB018C0D9D1DAE1DBF1DB7FFFF
:1006800003C00197A109B04888839983AA83BB83DB
:100690009F77DF91CF91FF90EF90DF90CF90BF9049
:1006A000AF909F908F900895B9CF80E092E0B6CF41
:1006B000A0E0B0E08093000290930102A0930202B8
:1006C000B09303020895052E97FB16F400940FD003
:1006D00057FD05D024D007FC02D046F408C0509541
:1006E0004095309521953F4F4F4F5F4F089590951E
:1006F0008095709561957F4F8F4F9F4F089531D0B2
:10070000A59F900DB49F900DA49F800D911D112465
:100710000895B7FFF4CFF3DF821B930B0895A1E296
:100720001A2EAA1BBB1BFD010DC0AA1FBB1FEE1F6B
:10073000FF1FA217B307E407F50720F0A21BB30BB6
:10074000E40BF50B661F771F881F991F1A9469F732
:1007500060957095809590959B01AC01BD01CF018E
:100760000895A29FB001B39FC001A39F700D811D8A
:100770001124911DB29F700D811D1124911D0895AA
:04078000F894FFCF1B
:100784000100000000020104020104080400030344
:06079400060605050C0C31
:00000001FF
