:1000000071C0000081C000007FC000007DC0000002
:100010007BC0000079C0000077C0000075C0000000
:1000200073C0000071C000006FC000006DC0000010
:100030006BC0000069C0000067C0000065C0000020
:1000400063C0000061C000005FC000005DC0000030
:100050005BC0000059C0000057C000006BC000002A
:1000600053C0000051C000004FC000004DC0000050
:100070004BC0000049C0000047C0000045C0000060
:1000800043C0000041C000003FC000003DC0000070
:100090003BC0000039C0000037C0000035C0000080
:1000A00033C0000031C000002FC000002DC0000090
:1000B0002BC0000029C0000027C0000025C00000A0
:1000C00023C0000021C000001FC000001DC00000B0
:1000D0001BC0000019C0000017C0000015C00000C0
:1000E00013C0000011241FBECFEFD1E2DEBFCDBF91
:1000F00000E00CBF22E0A0E0B2E001C01D92A330FE
:10010000B207E1F702D03EC07BCF02D00BD0FECFCA
:1001100086E086BD14BC83E085BD81E080936E00DF
:100120007894089580910202882319F010920202B7
:1001300081E008951F920F920FB60F9211242F9312
:100140008F939F9386B58A5F86BD809100029091C0
:1001500001020196883E23E0920729F09093010264
:100160008093000207C0109201021092000281E009
:10017000809302029F918F912F910F900FBE0F904D
:080180001F901895F894FFCFC1
:00000001FF
