:10000000D7C00000F5C00000F3C00000F1C0000040
:10001000EFC00000EDC00000EBC00000E9C0000030
:10002000E7C00000E5C00000E3C00000E1C0000040
:10003000DFC00000DDC00000DBC00000D9C0000050
:10004000D7C00000D5C00000D3C00000D1C0000060
:10005000CFC0000084C70000CBC00000C9C00000B2
:10006000C7C000000C94CB080C94F008C1C000007D
:10007000BFC00000BDC00000BBC00000B9C0000090
:10008000B7C00000B5C00000B3C00000B1C00000A0
:100090000C9421090C944609ABC00000A9C00000D3
:1000A000A7C00000A5C00000A3C00000A1C00000C0
:1000B0009FC000009DC000009BC0000099C00000D0
:1000C00097C0000095C0000093C000000C94770911
:1000D0000C949C098DC000008BC0000089C00000FA
:1000E00087C000004A616E75617279204665627250
:1000F00075617279204D6172636820417072696C1C
:10010000204D6179204A756E65204A756C792041D1
:1001100075677573742053657074656D62657220C0
:100120004F63746F626572204E6F76656D626572A3
:1001300020446563656D626572200053756E64616D
:1001400079204D6F6E6461792054756573646179AF
:10015000205765646E6573646179205468757273A5
:1001600064617920467269646179205361747572A3
:10017000646179200053756E4D6F6E5475655765D7
:1001800064546875467269536174004A616E4665CD
:10019000624D61724170724D61794A756E4A756C3B
:1001A0004175675365704F63744E6F7644656300A5
:1001B00011241FBECFEFD1E2DEBFCDBF00E00CBFE8
:1001C00012E0A0E0B2E0E0E4FBE100E00BBF02C01F
:1001D00007900D92A238B107D9F724E0A2E8B2E067
:1001E00001C01D92AF32B207E1F777D60C949E0D95
:1001F00007CF6DE174E003D08DE194E00895CF92D4
:10020000DF92EF92FF920F931F93CF93DF9300D073
:100210001F92CDB7DEB76C017B01E0912D04F09108
:100220002E04309729F069E274E019958C0102C020
:100230000FEF1FEFF6014081518162817381809140
:10024000290490912A04A0912B04B0912C04840FCE
:10025000951FA61FB71F101611064CF4A801012EFA
:10026000000C660B770B840F951FA61FB71F8983A1
:100270009A83AB83BC83B701CE0101961DD4F701ED
:10028000138702870F900F900F900F90DF91CF91FF
:100290001F910F91FF90EF90DF90CF9008950FB6D0
:1002A000F8946093190470931A0480931B0490933C
:1002B0001C040FBE08956093290470932A04809350
:1002C0002B0490932C040895CF92DF92EF920F931A
:1002D0006B01E82E7C2D6D2D5E2DAE2DC601019695
:1002E000A11D442351F06C01EA2EE72FF62F0E9446
:1002F0008B0D603279F74150EDCFF6010E948B0DE6
:100300006C01EA2E80E0603239F4F90110820F911D
:10031000EF90DF90CF9008958017B9F32F5F3F4F94
:10032000F901319760838F5FF6015E2D0E948B0D7E
:100330009FEFC91AD90AE90AE6CF2F923F924F924E
:100340005F926F927F928F929F92AF92BF92CF9265
:10035000DF92EF92FF920F931F93CF93DF93CDB76E
:10036000DEB7A2970FB6F894DEBF0FBECDBF2C014B
:100370007AA369A34A017901612C712C9E012F5F38
:100380003F4F690184E6282E312C93E2A92E92E09A
:10039000B92E49A15AA16416750608F0C2C2D4014B
:1003A0008C91853209F0B1C211961C91153431F04F
:1003B0001F3421F0B2E08B0E911C06C0F4011281B3
:1003C00094012D5F3F4F4901193509F429C20CF002
:1003D00060C0193409F43BC144F5133409F4E4C096
:1003E00054F4113409F4BDC00CF0C9C0153209F041
:1003F0006CC219836DC2163409F4E7C064F4143476
:1004000009F063C2F70186819781B1010E945C0DFA
:100410009F938F93DFC1173409F4F5C0183409F0A6
:1004200054C2D70112968C912CC1143509F483C1A2
:1004300064F4123509F46DC10CF021C11D3409F0CA
:1004400044C2D70111968C911CC1163509F49FC185
:100450000CF49BC1173509F4ADC1183509F035C24C
:10046000F7018081282F082E000C330B3F938F93C8
:100470008181282F082E000C330B3F938F938281AC
:10048000282F082E000C330B3F938F9388E692E0C1
:10049000B7C11D3609F4ECC0ACF5143609F491C0AF
:1004A00074F4123609F465C00CF073C0113609F00B
:1004B0000CC203E09601D70114964C9156C0173632
:1004C00009F4A1C074F4153609F0FFC1F701838166
:1004D000282F082E000C330B3F938F9388E292E075
:1004E000C4C0183609F445C01A3609F0EEC1D70168
:1004F00018968D919C91199701969F938F938EE3F7
:1005000092E0B3C0153709F42FC1ACF4103709F4E9
:10051000BEC034F41E3609F0D8C18AE08983D8C140
:10052000123709F4C2C0143709F0CFC164E572E094
:10053000C601D3D7CDC1183709F441C15CF41737D0
:1005400009F0C3C1F7018481282F082E000C330B5A
:100550003F936CC1193709F456C11A3709F475C1B4
:10056000B4C10FEF9601F70144816BE371E080E0C5
:100570000DC003E09601D70115964C9104C00FEF12
:100580009601F701458164EE70E080E09DDE90E029
:10059000A1C1B601C70113D2F601CF018C199D0983
:1005A00021912111FACF96C1D70116968D919C9178
:1005B00017978459984FB1010E945C0D7F936F93F8
:1005C0003AC0D70113968C915CC0D70113968C91D9
:1005D0001397282F082E000C330B3F938F931596FB
:1005E0008C911597082E000C990B01969F938F9371
:1005F00016968D919C9117978459984F9F938F933E
:100600008CE292E0FDC0D70118966D917C9119970C
:1006100016968D919C911797AE01455E5F4F845958
:10062000984F1BD3173651F48B8D9C8DB1010E94CE
:100630005C0D9F938F93E4E3F2E0A4C08C8D8F93C5
:100640008B8D8F9349E352E05F934F93F4C0F70192
:1006500082816CE00E944F0D992321F0892F990F20
:10066000990BD9C08CE090E0D6C09F938F93E3C0E4
:10067000F7018581082E000C990B0196CCC0D7019B
:100680008C91282F082E000C330B3F93C5C081E4BA
:100690008983F70182818C3014F080E589838DE4B1
:1006A0008A831B8282E090E015C1D70112968C915B
:1006B0006CE00E944F0D992321F0892F990F990B1F
:1006C00002C08CE090E0F7012081422F022E000C46
:1006D000550B5F932F932181422F022E000C550B57
:1006E0005F932F939F938F9383E492E09F938F93D5
:1006F000DF92CF92F9D60FB6F894DEBF0FBECDBF12
:10070000D70112962C912C300CF4E4C020E52B87F5
:10071000E1C0F7018181282F082E000C330B3F9395
:100720008F938281282F082E000C330B3F938F93D9
:100730008BE592E0BFC0F7018081282F082E000CC6
:10074000330B3F938F938181282F082E000C330B9E
:100750003F938F938281282F082E000C330B3F93F9
:100760008F9386E592E04CC0D70114968C91082EA9
:10077000000C990B009711F487E090E09F938F9302
:10078000EFE0F2E0FF93EF9356C060E014C0D701B2
:1007900018966D917C91199716968D919C9117974B
:1007A000AE01455E5F4F8459984F57D28E8D8F931F
:1007B0008D8D32C061E0C701E3D01F922DC0D701FB
:1007C00016968D919C911797B1010E945C0D9F9395
:1007D0008F93F7018381282F082E000C330B3F9352
:1007E0008F938581082E000C990B01969F938F9310
:1007F00029E132E03F932F93DF92CF9275D65FC00D
:100800009F938F93F9CFD70116968D919C9117974F
:10081000B1010E945C0D9F938F93BF92AF920BC06A
:10082000F701868197818459984F9F938F9325E68E
:1008300032E03F932F93DF92CF9256D60F900F90D6
:100840000F900F900F900F9045C060912904709108
:100850002A0480912B0490912C042CE330E040E09A
:1008600050E00E946F0D89019A01F801D7011A9694
:100870008D919C911B976CE370E00E945C0D1616A5
:1008800017061CF4FB01E00FF11FCF016CE370E0D1
:100890000E945C0D97FF03C09195819591099F93EC
:1008A0008F93CF016CE370E00E945C0D7F936F9398
:1008B00087E792E09F938F93DF92CF9215D60FB682
:1008C000F894DEBF0FBECDBF05C08FE389831A82C7
:1008D00081E090E09301280F391F49A15AA1D2016C
:1008E00024173507F8F4F601AF014C195D094817D4
:1008F00059071CF441914D93F7CF97FF02C080E058
:1009000090E0480E591E390144CDF20181932F0128
:10091000FFEF6F1A7F0A882331F02FEF821A920AB5
:1009200038CDD2011C92C301A2960FB6F894DEBF57
:100930000FBECDBFDF91CF911F910F91FF90EF9030
:10094000DF90CF90BF90AF909F908F907F906F90EF
:100950005F904F903F902F900895FC010FB6F89450
:100960006091190470911A0480911B0490911C04E9
:100970000FBE309721F06083718382839383089543
:10098000FC0120853185C90107964481841B9109AA
:1009900047FD9395860F911DE7E0F0E0BF010E94AF
:1009A0005C0DA901481B590BCA0157FD06C0BF01C8
:1009B0000E945C0D81E0860F089580E00895CF923B
:1009C000DF92EF92FF920F931F93CF93DF938C01EF
:1009D000EB01FC018481B82FBB0FB80F8581782F04
:1009E000770F780F9E0140E08B2F840F90E0A0E0FE
:1009F0008B589E4FAF4FFC015A2F0E948B0DF9016F
:100A000061939F01872F840F90E0A0E085579E4F50
:100A1000AF4FFC015A2F0E948B0DF90163834F5F8A
:100A2000433011F780E28F838B83BE01685F7F4F75
:100A3000F801838140E2082E000C990B83D1BE019E
:100A4000655F7F4FF80182814AE3082E000C990B05
:100A500079D1BE01625F7F4FF80181814AE3082EA0
:100A6000000C990B6FD1BE016F5E7F4FF801808142
:100A700040E2082E000C990B65D1F8018681978120
:100A800064E670E08459984F0E945C0D6B017C0114
:100A9000BE016C5E7F4F40E2C60154D1BE016A5E6A
:100AA0007F4F40E0C701DF91CF911F910F91FF90E1
:100AB000EF90DF90CF9046C1CF92DF92EF92FF92FE
:100AC0000F931F93CF93DF93CDB7DEB728970FB661
:100AD000F894DEBF0FBECDBF8B01FC016081718138
:100AE0008281938120E831E541E050E06AD46901D8
:100AF0007A012CE330E040E050E0F1D729833A83DB
:100B00004B835C8389819A81AB81BC81F8016083CE
:100B10006CE370E0D1D7DC01CB01F801A1838283C3
:100B2000C601069667E070E038D484832DEA3EE87B
:100B300040E050E0C701B601D2D729833A836D83E4
:100B40007E838F83988789819A8124E6289F60011C
:100B5000299FD00C11246D817E818F81988525EB92
:100B600035E040E050E0BBD729833A836D837E8334
:100B7000E980FA80EE0CFF1CEE0CFF1CEC0CFD1C57
:100B80008D819E81F5E6EF16F10410F0019604C008
:100B900024E6E216F10419F021E030E002C020E082
:100BA00030E0A90144595E4F4817590760F46DE6DB
:100BB00071E0821B930B80D7DC01CB01E80EF91E9C
:100BC000CD0120E030E044E6E40EF11CF801F782AC
:100BD000E68291878087255C3F4F8217930740F418
:100BE0006FE170E069D7DC01CB01F80185831FC09C
:100BF00069E970E0821B930B5FD7DC01CB01F82E13
:100C0000FF0CFF0CF80E6DE370E0CD0155D7DC0151
:100C1000CB01E82EEE0C6FE170E0CD014DD7DC0189
:100C2000CB0122E0280FF20EFE0CF801F582A3831F
:100C3000F8011386128683818F5F838328960FB60F
:100C4000F894DEBF0FBECDBFDF91CF911F910F9102
:100C5000FF90EF90DF90CF900895CF92DF92EF92C8
:100C6000FF920F931F93CF93DF938C017B01EA01D7
:100C70009983888378D0282FA801405D57406DE67E
:100C800071E0469FC001479F900D569F900D112423
:100C90008E0D9F1D4115510579F0BA017695679526
:100CA000769567956F5F7F4F860F971F821B91091F
:100CB0004536510508F00197069667E070E06DD360
:100CC0006C01892B19F487E0C82ED12CDD82CC82EF
:100CD000C7010B968C199D0967E070E0EDD665336E
:100CE0007105B1F481E0C81AD108EC18FD08822F13
:100CF00090E084599E4F23E0E20EF11C8E159F0573
:100D00003CF48881998101969983888361E070E041
:100D10007B836A83672B69F401501109C80123D0D2
:100D2000682F70E064597E4FAE01C80196DFDD8206
:100D3000CC82DF91CF911F910F91FF90EF90DF90C8
:100D4000CF9008951F93CF93DF93EB01142F6AE0A8
:100D500070E0B2D6605D6883805D89831A83DF911D
:100D6000CF911F9108959C0123703327232B51F4B9
:100D700064E670E0A1D6892B39F46370772781E0AF
:100D8000672B19F080E0089581E008958F929F927B
:100D9000AF92BF92CF92DF92EF92FF920F931F9389
:100DA0000F2EF8EEAF2EF02D0F2EF3E0BF2EF02D0C
:100DB000C12CD12CE12CF12C00E010E026D3822EA6
:100DC000932EA42EB52EC501B401605873448D46F0
:100DD000984365DA60E97DE98FEF9FEF6CDA1F9148
:100DE0000F91FF90EF90DF90CF90BF90AF909F90CA
:100DF0008F9008958F929F92AF92BF92CF92DF9281
:100E0000EF92FF920F931F93CF93DF93CDB7DEB78F
:100E1000C456D1090FB6F894DEBF0FBECDBFCE01C8
:100E20008F5A9F4F9ADD8AD00F2EF8EEAF2EF02DFD
:100E30000F2EF3E0BF2EF02DC12CD12CE12CF12C84
:100E400000E010E0E2D2822E932EA42EB52E6596FD
:100E50008CAD9DADAEADBFAD6597880E991EAA1E37
:100E6000BB1E69968CAE9DAEAEAEBFAE6997CE018D
:100E70008B5A9F4FBED9FC019CE0DE01A75ABF4FA1
:100E800001900D929A95E1F79E01275A3F4F40E05D
:100E900052E060E570E0CE0101964FDA80E076D155
:100EA00062E172E080E060D1BE016F5F7F4F80E061
:100EB0005BD1CC59DF4F0FB6F894DEBF0FBECDBF6C
:100EC000DF91CF911F910F91FF90EF90DF90CF9026
:100ED000BF90AF909F908F900895EE24E39401E02F
:100EE00020E047E060E875E280E092D0F4D00ED0D8
:100EF00028E033E249E654E362E771E080E090E005
:100F000045DF14D08823E9F375DFFBCF16BC84B529
:100F1000826084BD85B5836085BDEEE6F0E08081AA
:100F20008260808389EF87BD7894089580918C02D8
:100F3000882319F010928C0281E008952091840298
:100F4000309185024091860250918702609188021B
:100F50007091890280918A0290918B0208951F926C
:100F60000F920FB60F9211240BB60F922F933F934F
:100F70004F935F936F937F938F939F93AF93EF9371
:100F8000FF93E0918202F09183023196F093830205
:100F9000E093820220918402309185024091860282
:100FA00050918702609188027091890280918A0233
:100FB00090918B02A1E085D2209384023093850228
:100FC000409386025093870260938802709389024F
:100FD00080938A0290938B02E83EF34039F410929A
:100FE00083021092820281E080938C02FF91EF9144
:100FF000AF919F918F917F916F915F914F913F91B1
:101000002F910F900BBE0F900FBE0F901F90189551
:10101000EF920F93CF93DF93C82FD0E06896CC0F59
:10102000DD1FCC0FDD1FCC0FDD1F011103C0888138
:10103000888303C0888182608883898188698983E5
:10104000453019F48A818A830BC0463021F48A81A5
:1010500082608A8305C0473019F48A8184608A835C
:1010600081E0E81203C08A818A8306C082E0E81228
:1010700003C08A8188608A83211103C08A818A83A0
:101080000BC0213021F48A8180638A8305C022301D
:1010900019F48A8180628A838A818A8301110BC054
:1010A0009B0140E050E060E472E48FE090E089D181
:1010B00021502C830AC09B0140E050E060E874E8B6
:1010C0008EE190E07ED121502C837894DF91CF91F6
:1010D0000F91EF90089582E085BD6099FECF16BC18
:1010E000609BFECF15BC86B590E001979093C5003C
:1010F0008093C40008958130A9F018F0823019F16E
:101100000895A1E5B3E0EC91F0E0EF5EFC4F608361
:101110008C918E5F8F738C93E1ECF0E08081806224
:1011200080830895A3E9B3E0EC91F0E0ED5AFC4F21
:1011300060838C918E5F8F738C93E9ECF0E08081FB
:10114000806280830895ADECB2E0EC91F0E0E3576B
:10115000FD4F60838C918E5F8F738C93E1EDF0E097
:1011600080818062808308951F93CF93DF93EB018A
:101170006881662339F0182F2196812FBCDF699191
:101180006111FBCFDF91CF911F91089564E172E06F
:1011900080E0EACF08951F920F920FB60F921124AC
:1011A0000BB60F928F93AF93BF93EF93FF93A5ED81
:1011B000B3E0EC91F0E08091C600EB56FC4F8083E9
:1011C0008C918E5F8F738C93FF91EF91BF91AF9154
:1011D0008F910F900BBE0F900FBE0F901F90189520
:1011E0001F920F920FB60F9211240BB60F928F938E
:1011F0009F93AF93BF93EF93FF93A2E5B3E0EC917E
:10120000F0E0EF5EFC4F80818093C6008C918E5F92
:101210008F738C939C9180915103981305C0E1ECDE
:10122000F0E080818F7D8083FF91EF91BF91AF913E
:101230009F918F910F900BBE0F900FBE0F901F903C
:1012400018951F920F920FB60F9211240BB60F92A2
:101250008F93AF93BF93EF93FF93AFE0B3E0EC9125
:10126000F0E08091CE00E153FD4F80838C918E5F42
:101270008F738C93FF91EF91BF91AF918F910F90EE
:101280000BBE0F900FBE0F901F9018951F920F92DC
:101290000FB60F9211240BB60F928F939F93AF93BB
:1012A000BF93EF93FF93A4E9B3E0EC91F0E0ED5A24
:1012B000FC4F80818093CE008C918E5F8F738C93D6
:1012C0009C9180919303981305C0E9ECF0E0808134
:1012D0008F7D8083FF91EF91BF91AF919F918F910F
:1012E0000F900BBE0F900FBE0F901F9018951F927E
:1012F0000F920FB60F9211240BB60F928F93AF93EC
:10130000BF93EF93FF93A7E1B4E0EC91F0E08091FD
:10131000D600E952FC4F80838C918E5F8F738C9343
:10132000FF91EF91BF91AF918F910F900BBE0F90F6
:101330000FBE0F901F9018951F920F920FB60F922D
:1013400011240BB60F928F939F93AF93BF93EF939C
:10135000FF93AEECB2E0EC91F0E0E357FD4F8081FB
:101360008093D6008C918E5F8F738C939C9180912B
:10137000CD02981305C0E1EDF0E080818F7D808380
:10138000FF91EF91BF91AF919F918F910F900BBE05
:101390000F900FBE0F901F901895AA1BBB1B51E119
:1013A00007C0AA1FBB1FA617B70710F0A61BB70BD5
:1013B000881F991F5A95A9F780959095BC01CD017A
:1013C0000895A1E21A2EAA1BBB1BFD010DC0AA1F86
:1013D000BB1FEE1FFF1FA217B307E407F50720F09E
:1013E000A21BB30BE40BF50B661F771F881F991F19
:1013F0001A9469F760957095809590959B01AC0162
:10140000BD01CF010895689401C0E8948F929F9226
:10141000CF93DF9305D0DF91CF919F908F90089568
:1014200088249924F401E401B0E49F93AA279A1533
:101430008B049C04ED05FE05CF05D007A10798F4A9
:10144000AD2FDC2FCF2FFE2FE92D982C892E982F32
:10145000872F762F652F542F432F322F2227B850F6
:1014600031F7BF9127C01B2EBF91BB27220F331F1F
:10147000441F551F661F771F881F991F881C991CC2
:10148000EE1FFF1FCC1FDD1FAA1FBB1F8A149B046A
:10149000EC05FD05CE05DF05A007B10748F08A1869
:1014A0009B08EC09FD09CE09DF09A00BB10B2160F7
:1014B0001A94E1F62EF49401AF01BE01CD01000CA7
:1014C00008950024A7FD00942A0F301D401D501DD3
:1014D000601D701D801D901D0895FB01DC010190B1
:1014E0000D920020E1F708950F931F93CF93DF93A0
:1014F000CDB7DEB72E970FB6F894DEBF0FBECDBFC7
:101500000E891F8986E08C831A8309838FEF9FE7FA
:101510009E838D83AE01465E5F4F688D798DCE01CF
:10152000019610D0EF81F885E00FF11F10822E9602
:101530000FB6F894DEBF0FBECDBFDF91CF911F91E4
:101540000F9108952F923F924F925F926F927F92E8
:101550008F929F92AF92BF92CF92DF92EF92FF92C3
:101560000F931F93CF93DF93CDB7DEB72B970FB6B3
:10157000F894DEBF0FBECDBF6C017B018A01FC0178
:1015800017821682838181FFBFC1CE0101963C0183
:10159000F6019381F70193FD859193FF81917F017E
:1015A000882309F4ADC1853239F493FD859193FF09
:1015B00081917F01853221F4B60190E0D6D1E8CF48
:1015C000912C212C312CFFE1F315D8F08B3279F0DE
:1015D00038F4803279F08332A1F4232D20611DC0CC
:1015E0008D3261F0803369F4232D216016C0832D84
:1015F0008260382EE32DE4603E2E2AC0F32DF86081
:101600001DC037FC2DC020ED280F2A3040F08E324F
:10161000B9F436FC75C1232D2064322E19C036FE74
:1016200006C08AE0989E200D1124922E11C0EAE097
:101630002E9E200D1124222EF32DF0623F2E08C085
:101640008C3621F4832D8068382E02C0883641F410
:10165000F70193FD859193FF81917F018111B3CFB4
:10166000982F9F7D9554933028F40C5F1F4F9FE374
:1016700099830DC0833631F0833771F0833509F0DB
:1016800055C020C0F801808189830E5F1F4F8824D8
:101690008394912C530112C02801F2E04F0E511C8B
:1016A000F801A080B18036FE03C0692D70E002C051
:1016B0006FEF7FEFC5014ED14C018201F32DFF7713
:1016C0003F2E15C0280122E0420E511CF801A080D7
:1016D000B18036FE03C0692D70E002C06FEF7FEF6E
:1016E000C5012DD14C01F32DF0683F2E820133FC52
:1016F00019C0822D90E088169906A0F4B60180E208
:1017000090E033D12A94F5CFF50137FC859137FE6F
:1017100081915F01B60190E028D121102A9421E047
:10172000821A91088114910479F7E1C0843611F08E
:10173000893639F5F80137FE07C0608171818281F1
:1017400093810C5F1F4F08C060817181072E000CD0
:10175000880B990B0E5F1F4FF32DFF763F2E97FFDF
:1017600009C090958095709561957F4F8F4F9F4FE1
:10177000F0683F2E2AE030E0A30133D1882E86188E
:1017800044C0853731F4232D2F7EB22E2AE030E07D
:1017900025C0932D997FB92E8F36C1F018F4883566
:1017A00079F0AEC0803719F0883721F0A9C0E92F51
:1017B000E061BE2EB4FE0DC0FB2DF460BF2E09C04B
:1017C00034FE0AC0292F2660B22E06C028E030E081
:1017D00005C020E130E002C020E132E0F801B7FEB0
:1017E00007C060817181828193810C5F1F4F06C0A9
:1017F0006081718180E090E00E5F1F4FA301F1D006
:10180000882E8618FB2DFF773F2E36FE0DC0232D28
:101810002E7FA22E891458F434FE0BC032FC09C06E
:10182000832D8E7EA82E05C0B82CA32C03C0B82C07
:1018300001C0B92CA4FE0FC0FE01E80DF11D80818E
:10184000803321F49A2D997EA92E09C0A2FE06C0EC
:10185000B394B39404C08A2D867809F0B394A3FCA2
:1018600010C0A0FE06C0B21480F4280C922C9B1865
:101870000DC0B21458F4B60180E290E076D0B39473
:10188000F8CFB21418F42B1802C0982C212CA4FE07
:101890000FC0B60180E390E068D0A2FE16C0A1FCA4
:1018A00003C088E790E002C088E590E0B6010CC074
:1018B0008A2D867851F0A1FE02C08BE201C080E241
:1018C000A7FC8DE2B60190E050D0891430F4B60147
:1018D00080E390E04AD09A94F8CF8A94F301E80D1F
:1018E000F11D8081B60190E040D08110F6CF22201A
:1018F00009F44ECEB60180E290E037D02A94F7CFBB
:10190000F6018681978102C08FEF9FEF2B960FB66D
:10191000F894DEBF0FBECDBFDF91CF911F910F9125
:10192000FF90EF90DF90CF90BF90AF909F908F90FF
:101930007F906F905F904F903F902F900895FC01A3
:101940000590615070400110D8F7809590958E0FEA
:101950009F1F0895FC016150704001900110D8F75D
:10196000809590958E0F9F1F08950F931F93CF938F
:10197000DF93FB01238121FD03C08FEF9FEF2CC07C
:1019800022FF16C0468157812481358142175307B3
:1019900044F4A081B1819D012F5F3F4F31832083AB
:1019A0008C93268137812F5F3F4F3783268314C066
:1019B0008B01EC01FB010084F185E02D1995892B49
:1019C000E1F6D80116968D919C911797019617967E
:1019D0009C938E931697CE01DF91CF911F910F911B
:1019E0000895FA01AA27283051F1203181F1E894B5
:1019F0006F936E7F6E5F7F4F8F4F9F4FAF4FB1E002
:101A00003ED0B4E03CD0670F781F891F9A1FA11DFC
:101A1000680F791F8A1F911DA11D6A0F711D811DFD
:101A2000911DA11D20D009F468943F912AE0269FC2
:101A300011243019305D3193DEF6CF010895462F21
:101A40004770405D4193B3E00FD0C9F7F6CF462F02
:101A50004F70405D4A3318F0495D31FD405241936B
:101A600002D0A9F7EACFB4E0A69597958795779528
:101A70006795BA95C9F700976105710508959B01AF
:101A8000AC010A2E06945795479537952795BA9538
:101A9000C9F7620F731F841F951FA01D089587FB50
:101AA000082E062687FD819567FD61953BD00EF4D3
:101AB000919507FC8195089597FB072E16F40094E5
:101AC00006D077FD08D069DC07FC05D03EF4909580
:101AD00081959F4F0895709561957F4F0895052ECC
:101AE00097FB16F400940FD057FD05D06ADC07FC75
:101AF00002D046F408C050954095309521953F4F4F
:101B00004F4F5F4F089590958095709561957F4FE9
:101B10008F4F9F4F089557FD03C05BBF6791089596
:101B200060810895991B79E004C0991F961708F009
:101B3000961B881F7A95C9F780950895F894FFCF72
:101B400025483A254D3A25532025592D256D2D251B
:101B500064000D001B5B324A00252E32752F252EA6
:101B600032752F252E3275002532640025642D250F
:101B70002E32642D252E326400252E346400252E4D
:101B80003375002532643A252E32643A252E3264AC
:101B900020414D000900252E32643A252E32643A48
:101BA000252E326400257500252E32753A252E32F9
:101BB000753A252E327500252B2E3264252E32647F
:021BC000000023
:00000001FF
