S019000041746D6567615F323536305F55534152542E73726563A2
S113000071C0000081C000007FC000007DC00000FE
S11300107BC0000079C0000077C0000075C00000FC
S113002073C0000071C000006FC000006DC000000C
S11300306BC0000069C0000067C0000065C000001C
S113004063C0000061C000005FC000005DC000002C
S11300505BC0000059C0000057C0000055C000003C
S113006053C00000C6C00000EBC000004DC000003B
S11300704BC0000049C0000047C0000045C000005C
S113008043C0000041C000003FC000003DC000006C
S11300903BC0000039C0000037C0000035C000007C
S11300A033C0000031C000002FC000002DC000008C
S11300B02BC0000029C0000027C0000025C000009C
S11300C023C0000021C000001FC000001DC00000AC
S11300D01BC0000019C0000017C0000015C00000BC
S11300E013C0000011241FBECFEFD1E2DEBFCDBF8D
S11300F000E00CBF22E0A0E0B2E001C01D92A438F1
S1130100B207E1F7CDD0FAC07BCFEF920F93CF9334
S1130110DF93C82FD0E06896CC0FDD1FCC0FDD1F16
S1130120CC0FDD1F011103C08881888303C088813F
S113013082608883898188618983453019F48A8142
S11301408A830BC0463021F48A8182608A8305C089
S1130150473019F48A8184608A8381E0E81203C0FD
S11301608A818A8306C082E0E81203C08A8188609B
S11301708A83211103C08A818A830BC0213021F430
S11301808A8180638A8305C0223019F48A8180625F
S11301908A838A818A8301110BC09B0140E050E06D
S11301A060E472E48FE090E087D021502C830AC091
S11301B09B0140E050E060E874E88EE190E07CD080
S11301C021502C837894DF91CF910F91EF90089573
S11301D0A2E8B2E09C91E92FF0E0EE5BFD4F808352
S11301E09E5F9F739C93E1ECF0E08081806280834A
S11301F008951F920F920FB60F9211240BB60F920F
S11302008F939F93AF93BF93EF93FF93A0E4B2E0D8
S11302108C919091C600E82FF0E0E050FE4F90835F
S11302208E5F8F738C93FF91EF91BF91AF919F91EC
S11302308F910F900BBE0F900FBE0F901F901895CB
S11302401F920F920FB60F9211240BB60F928F9339
S11302509F93AF93BF93EF93FF93A3E8B2E08C9186
S1130260E82FF0E0EE5BFD4F90819093C6008E5F27
S11302708F738C9390918202891305C0E1ECF0E0B6
S113028080818F7D8083FF91EF91BF91AF919F918A
S11302908F910F900BBE0F900FBE0F901F9018956B
S11302A0EE24E39400E020E047E060E875E280E0BB
S11302B02CDF81E38DDFFDCFA1E21A2EAA1BBB1B2D
S11302C0FD010DC0AA1FBB1FEE1FFF1FA217B3071E
S11302D0E407F50720F0A21BB30BE40BF50B661F34
S11302E0771F881F991F1A9469F7609570958095F8
S11302F090959B01AC01BD01CF010895F894FFCF07
S9030000FC
