:1000000071C0000081C000007FC000007DC0000002
:100010007BC0000079C0000077C0000075C0000000
:1000200073C0000071C000006FC000006DC0000010
:100030006BC0000069C0000067C0000065C0000020
:1000400063C0000061C000005FC000005DC0000030
:100050005BC0000059C0000057C0000055C0000040
:1000600053C0000051C000004FC000004DC0000050
:100070004BC0000049C0000047C0000045C0000060
:1000800043C0000041C000003FC000003DC0000070
:100090003BC0000039C0000037C0000035C0000080
:1000A00033C0000031C000002FC000002DC0000090
:1000B0002BC0000029C0000027C0000025C00000A0
:1000C00023C0000021C000001FC000001DC00000B0
:1000D0001BC0000019C0000017C0000015C00000C0
:1000E00013C0000011241FBECFEFD1E2DEBFCDBF91
:1000F00000E00CBF22E0A0E0B2E001C01D92A03001
:10010000B207E1F76CD099C07BCFEF920F93CF93FA
:10011000DF93C82FD0E06896CC0FDD1FCC0FDD1F1A
:10012000CC0FDD1F011103C08881888303C0888143
:1001300082608883898188618983453019F48A8146
:100140008A830BC0463021F48A8182608A8305C08D
:10015000473019F48A8184608A8381E0E81203C001
:100160008A818A8306C082E0E81203C08A8188609F
:100170008A83211103C08A818A830BC0213021F434
:100180008A8180638A8305C0223019F48A81806263
:100190008A838A818A8301110BC09B0140E050E071
:1001A00060E472E48FE090E026D021502C830AC0F6
:1001B0009B0140E050E060E874E88EE190E01BD0E5
:1001C00021502C83DF91CF910F91EF900895E0ECB7
:1001D000F0E0908195FFFDCF8093C6000895EE2456
:1001E000E39400E020E047E060E875E280E08DDF26
:1001F00081E3EDDFFDCFA1E21A2EAA1BBB1BFD019F
:100200000DC0AA1FBB1FEE1FFF1FA217B307E407F5
:10021000F50720F0A21BB30BE40BF50B661F771F4D
:10022000881F991F1A9469F760957095809590952D
:0E0230009B01AC01BD01CF010895F894FFCFF2
:00000001FF
