S019000041746D6567615F323536305F55534152542E73726563A2
S113000071C000008EC000008CC000008AC00000D7
S113001088C0000086C0000084C0000082C00000C8
S113002080C000007EC000007CC000007AC00000D8
S113003078C0000076C0000074C0000072C00000E8
S113004070C000006EC000006CC000006AC00000F8
S113005068C0000066C0000064C0000062C0000008
S113006060C0000085C00000A8C000005AC00000A5
S113007058C0000056C0000054C0000052C0000028
S113008050C000004EC000004CC000004AC0000038
S1130090C5C00000E8C0000044C0000042C0000029
S11300A040C000003EC000003CC000003AC0000058
S11300B038C0000036C0000034C0000032C0000068
S11300C030C000002EC000002CC00000FDC00000A5
S11300D020C1000026C0000024C0000022C000008F
S11300E020C0000011241FBECFEFD1E2DEBFCDBF80
S11300F000E00CBF12E0A0E0B2E0E8E7F3E000E0CB
S11301000BBF02C007900D92A030B107D9F723E0CE
S1130110A0E0B2E001C01D92AC38B207E1F702D012
S113012029C16ECF80E001D0FDCF813069F018F095
S1130130823099F01BC0209148039091490381E0DB
S1130140291315C080E008952091820290918302C2
S113015081E029130CC080E0089520918A039091D6
S11301608B0381E0291303C080E0089581E00895A2
S11301701F920F920FB60F9211240BB60F928F930A
S1130180AF93BF93EF93FF93A8E4B3E0EC91F0E057
S11301908091C600E85FFC4F80838C918E5F8F73E3
S11301A08C93FF91EF91BF91AF918F910F900BBE04
S11301B00F900FBE0F901F9018951F920F920FB6BD
S11301C00F9211240BB60F928F939F93AF93BF930B
S11301D0EF93FF93A5ECB2E0EC91F0E0EC57FD4F08
S11301E080818093C6008C918E5F8F738C939C91D9
S11301F08091C402981305C0E1ECF0E080818F7D0A
S11302008083FF91EF91BF91AF919F918F910F9058
S11302100BBE0F900FBE0F901F9018951F920F9258
S11302200FB60F9211240BB60F928F93AF93BF9317
S1130230EF93FF93A2E8B2E0EC91F0E08091CE005E
S1130240EE5BFD4F80838C918E5F8F738C93FF9157
S1130250EF91BF91AF918F910F900BBE0F900FBE96
S11302600F901F9018951F920F920FB60F921124A2
S11302700BB60F928F939F93AF93BF93EF93FF931C
S1130280A7E0B3E0EC91F0E0EA53FD4F8081809366
S1130290CE008C918E5F8F738C939C91809106031A
S11302A0981305C0E9ECF0E080818F7D8083FF9195
S11302B0EF91BF91AF919F918F910F900BBE0F90D3
S11302C00FBE0F901F9018951F920F920FB60F92AA
S11302D011240BB60F928F93AF93BF93EF93FF93B9
S11302E0AAE8B3E0EC91F0E08091D600E65BFC4F25
S11302F080838C918E5F8F738C93FF91EF91BF916C
S1130300AF918F910F900BBE0F900FBE0F901F9067
S113031018951F920F920FB60F9211240BB60F92DD
S11303208F939F93AF93BF93EF93FF93A1E4B2E0B6
S1130330EC91F0E0E050FE4F80818093D6008C91E8
S11303408E5F8F738C939C9180914002981305C0AB
S1130350E1EDF0E080818F7D8083FF91EF91BF918B
S1130360AF919F918F910F900BBE0F900FBE0F9086
S10B03701F901895F894FFCFCB
S9030000FC
