S019000041746D6567615F323536305F55534152542E73726563A2
S113000071C000008EC000008CC000008AC00000D7
S113001088C0000086C0000084C0000082C00000C8
S113002080C000007EC000007CC000007AC00000D8
S113003078C0000076C0000074C0000072C00000E8
S113004070C000006EC000006CC000006AC00000F8
S113005068C0000066C0000064C0000062C0000008
S113006060C0000068C300009DC300005AC00000C7
S113007058C0000056C0000054C0000052C0000028
S113008050C000004EC000004CC000004AC0000038
S113009048C0000046C0000044C0000042C0000048
S11300A040C000003EC000003CC000003AC0000058
S11300B038C0000036C0000034C0000032C0000068
S11300C030C000002EC000002CC000002AC0000078
S11300D028C0000026C0000024C0000022C0000088
S11300E020C0000011241FBECFEFD1E2DEBFCDBF80
S11300F000E00CBF12E0A0E0B2E0E0E2F9E000E0D2
S11301000BBF02C007900D92A631B107D9F722E0C8
S1130110A6E1B2E001C01D92AA39B207E1F788D383
S1130120FDC36ECFEF920F93CF93DF93CDB7DEB7BE
S113013029970FB6F894DEBF0FBECDBF8B837D83A6
S11301406C834E832F830887E9868B81882F90E008
S11301504896880F991F880F991F880F991F9A83B3
S113016089838885882349F489819A81FC012081C7
S113017089819A81FC0120830AC089819A81FC01CA
S11301808081282F226089819A81FC0120838981C2
S11301909A8101969A83898389819A81FC0180815D
S11301A0282F286989819A81FC01208389819A8179
S11301B001969A8389838E81853049F489819A8155
S11301C0FC01208189819A81FC0120831BC08E81DE
S11301D0863059F489819A81FC018081282F22601C
S11301E089819A81FC0120830DC08E81873051F46E
S11301F089819A81FC018081282F246089819A81D8
S1130200FC0120838985813049F489819A81FC012C
S1130210208189819A81FC0120830DC089858230E7
S113022051F489819A81FC018081282F2860898179
S11302309A81FC0120838F81882349F489819A81E2
S1130240FC01208189819A81FC0120831BC08F815C
S1130250813059F489819A81FC018081282F20639F
S113026089819A81FC0120830DC08F81823051F4F1
S113027089819A81FC018081282F206289819A8159
S1130280FC01208389819A81FC01208189819A81E2
S1130290FC01208389819A8102969A8389838885C7
S11302A08823A9F48C819D819C0140E050E080E486
S11302B092E4AFE0B0E0BC01CD01EFD2DA01C901B4
S11302C02FEF280F89819A81FC01208314C08C812F
S11302D09D819C0140E050E080E894E8AEE1B0E00C
S11302E0BC01CD01DAD2DA01C9012FEF280F8981CF
S11302F09A81FC0120837894000029960FB6F89423
S1130300DEBF0FBECDBFDF91CF910F91EF90089567
S1130310CF93DF931F92CDB7DEB7898380915602C6
S1130320882F90E08A5E9D4F2981FC012083809173
S113033056028E5F8F738093560281EC90E021EC1D
S113034030E0F90120812062FC01208300000F903D
S1130350DF91CF910895CF93DF931F921F92CDB772
S1130360DEB79A8389830AC089819A81FC018081DE
S1130370CFDF89819A8101969A83898389819A81C1
S1130380FC018081882381F700000F900F90DF919A
S1130390CF910895CF93DF931F92CDB7DEB790919D
S11303A09802809199029817D1F380919902882F2D
S11303B090E0885A9D4FFC01808189838091990245
S11303C08E5F8F738093990289810F90DF91CF9113
S11303D00895CF93DF9300D01F92CDB7DEB79C83EF
S11303E08B831982D7DF8A838A8192DF8A8188305E
S11303F079F48981882361F08981815089838B8193
S11304009C8101979C838B8380E282DF8A8180DFD9
S11304108A81883081F089818A3068F48B819C815B
S11304209C012F5F3F4F3C832B832A81FC01208357
S113043089818F5F89838A818D30A1F68B819C812C
S1130440FC01108200000F900F900F900F90DF912D
S1130450CF910895CF93DF93CDB7DEB790919802F3
S113046080919902981711F480E001C081E0DF9136
S1130470CF910895CF93DF93CDB7DEB780E192E0BB
S11304806ADF0000DF91CF910895CF93DF93CDB75A
S1130490DEB72E970FB6F894DEBF0FBECDBF8E87A2
S11304A08E85882F90E09E012F5F3F4FA9016AE05F
S11304B070E0BCD0CE0104969C01F90101900020AB
S11304C0E9F7CF010197821B930B9E012C5F3F4FED
S11304D0820F931F2BE13BE5FC0131832083FC0158
S11304E01282CE0104969E012F5F3F4FB9010BD2B9
S11304F0CE0104969C01F90101900020E9F7CF0197
S11305000197821B930B9E012C5F3F4F820F931F19
S11305102DE630E0FC0131832083CE0104961BDFFD
S113052000002E960FB6F894DEBF0FBECDBFDF914C
S1130530CF910895CF93DF93CDB7DEB769970FB608
S1130540F894DEBF0FBECDBF888F698F888D882F4A
S113055090E09E012F5F3F4FA9016AE070E066D0F2
S1130560898D882F90E09E012B5F3F4FA9016AE09F
S113057070E05CD0CE0109969C01F9010190002045
S1130580E9F7CF010197821B930B9E01275F3F4F31
S1130590820F931F2BE13BE5FC0131832083FC0197
S11305A01282CE0109969E012F5F3F4FB901ABD154
S11305B0CE0109969C01F90101900020E9F7CF01D1
S11305C00197821B930B9E01275F3F4F820F931F5E
S11305D02BE330E0FC01318320839E012B5F3F4FEE
S11305E0CE010996B9018FD1CE0109969C01F9017A
S11305F001900020E9F7CF010197821B930B9E0124
S1130600275F3F4F820F931F28E430E0FC013183C2
S11306102083CE0109969FDE000069960FB6F894F8
S1130620DEBF0FBECDBFDF91CF910895CF93DF938F
S1130630CDB7DEB76A970FB6F894DEBF0FBECDBF55
S11306409E8B8D8B788F6F8B5A8F498F1C821B8268
S11306501A8219828D899E89892B09F458C021C078
S11306608B819C819E012B5F3F4F280F391F8D8901
S11306709E894F89588DBA01FDD080509E4FFC0150
S11306808081F90180838D899E892F89388DB901F4
S1130690F1D0CB019E8B8D8B8B819C8101969C83A9
S11306A08B838D899E89892BD9F68B819C819E01B0
S11306B02B5F3F4F820F931FFC0110821BC08B8165
S11306C09C8101979C838B8389819A81298D3A8DA2
S11306D0820F931FAE014B5F5F4F2B813C81240F30
S11306E0351FF9012081FC01208389819A810196BB
S11306F09A8389838B819C81892B09F789819A81CB
S1130700298D3A8D820F931FFC0110820AC0898DB6
S11307109A8D20E3FC012083898D9A8D0196FC013A
S1130720108200006A960FB6F894DEBF0FBECDBFEC
S1130730DF91CF9108951F920F9200905F000F9266
S1130740112400905B000F922F933F938F939F93FC
S1130750EF93FF93CF93DF93CDB7DEB780919802E9
S1130760882F90E026EC30E0F9012081885A9D4FD3
S1130770FC012083809198028E5F8F73809398028E
S11307800000DF91CF91FF91EF919F918F913F9165
S11307902F910F9000925B000F9000925F000F90DA
S11307A01F9018951F920F9200905F000F921124D2
S11307B000905B000F922F933F938F939F93EF933F
S11307C0FF93CF93DF93CDB7DEB786EC90E0209113
S11307D05702222F30E02A5E3D4FF9012081FC01AF
S11307E02083809157028E5F8F738093570290917C
S11307F0570280915602981749F481EC90E021EC5D
S113080030E0F90120812F7DFC0120830000DF917D
S1130810CF91FF91EF919F918F913F912F910F90E5
S113082000925B000F9000925F000F901F9018954C
S1130830EF920F93CF93DF93CDB7DEB764970FB6E4
S1130840F894DEBF0FBECDBFEE24E39401E020E0B8
S113085047E060E875E280E065DC6AE08AE06ADE31
S113086084E213DE07DEF6DD8823E9F3CE01019688
S1130870B0DDF9CF97FB072E16F4009406D077FD70
S113088008D02DD007FC05D03EF4909581959F4F5C
S11308900895709561957F4F0895A1E21A2EAA1BC1
S11308A0BB1BFD010DC0AA1FBB1FEE1FFF1FA2171C
S11308B0B307E407F50720F0A21BB30BE40BF50B19
S11308C0661F771F881F991F1A9469F760957095A2
S11308D0809590959B01AC01BD01CF010895AA1BA1
S11308E0BB1B51E107C0AA1FBB1FA617B70710F017
S11308F0A61BB70B881F991F5A95A9F78095909549
S1130900BC01CD010895FB01DC010D900020E9F745
S1130910119701900D920020E1F70895F894FFCF0C
S11309203031323334353637383941424344454621
S10909301B5B324A0000CB
S9030000FC
