:1000000071C000008EC000008CC000008AC00000DB
:1000100088C0000086C0000084C0000082C00000CC
:1000200080C000007EC000007CC000007AC00000DC
:1000300078C0000076C0000074C0000072C00000EC
:1000400070C000006EC000006CC000006AC00000FC
:1000500068C0000066C0000064C0000062C000000C
:1000600060C000005FC0000082C000005AC00000F5
:1000700058C0000056C0000054C0000052C000002C
:1000800050C000004EC000004CC000004AC000003C
:1000900048C0000046C0000044C0000042C000004C
:1000A00040C000003EC000003CC000003AC000005C
:1000B00038C0000036C0000034C0000032C000006C
:1000C00030C000002EC000002CC000002AC000007C
:1000D00028C0000026C0000024C0000022C000008C
:1000E00020C0000011241FBECFEFD1E2DEBFCDBF84
:1000F00000E00CBF12E0A0E0B2E0E6EDF1E000E0CD
:100100000BBF02C007900D92A030B107D9F722E0D3
:10011000A0E0B2E001C01D92A438B207E1F758D0C8
:1001200058C06ECF1F920F920FB60F9211240BB6CC
:100130000F928F93AF93BF93EF93FF93A2E8B2E038
:10014000EC91F0E08091C600EE5BFD4F80838C91D6
:100150008E5F8F738C93FF91EF91BF91AF918F91D1
:100160000F900BBE0F900FBE0F901F9018951F920F
:100170000F920FB60F9211240BB60F928F939F938D
:10018000AF93BF93EF93FF93A1E4B2E0EC91F0E063
:10019000E050FE4F80818093C6008C918E5F8F73FC
:1001A0008C939C9180914002981305C0E1ECF0E0A3
:1001B00080818F7D8083FF91EF91BF91AF919F915F
:1001C0008F910F900BBE0F900FBE0F901F90189540
:0601D000FFCFF894FFCF01
:00000001FF
