:1000000071C000008EC000008CC000008AC00000DB
:1000100088C0000086C0000084C0000082C00000CC
:1000200080C000007EC000007CC000007AC00000DC
:1000300078C0000076C0000074C0000072C00000EC
:1000400070C000006EC000006CC000006AC00000FC
:1000500068C0000066C0000064C0000062C000000C
:1000600060C000000EC3000031C300005AC0000091
:1000700058C0000056C0000054C0000052C000002C
:1000800050C000004EC000004CC000004AC000003C
:100090004EC3000071C3000044C0000042C0000015
:1000A00040C000003EC000003CC000003AC000005C
:1000B00038C0000036C0000034C0000032C000006C
:1000C00030C000002EC000002CC0000086C300001D
:1000D000A9C3000026C0000024C0000022C0000008
:1000E00020C0000011241FBECFEFD1E2DEBFCDBF84
:1000F00000E00CBF12E0A0E0B2E0ECE0F9E000E0CC
:100100000BBF02C007900D92A633B107D9F725E0C7
:10011000A6E3B2E001C01D92A234B207E1F702D01B
:10012000F3C36ECFCF93DF93CDB7DEB7A8970FB6EB
:10013000F894DEBF0FBECDBFEE24E39400E020E0D4
:1001400047E060E875E280E0C6D080E072D180E0F0
:10015000E8D142E062E080E030D261E280E0E6D1C6
:1001600060E072E080E053D142E066E180E025D2B9
:1001700060E280E0DBD1BE016F5F7F4F80E09DD108
:10018000CE0101962AD08C01AE014F5F5F4F60E136
:1001900049D043E065E080E010D262E280E0C6D161
:1001A00064E172E080E033D1BE016F5F7F4F80E099
:1001B0002ED1AE014F5F5F4F62E0C80133D044E003
:1001C00065E080E0FAD16AE172E080E020D1BE0112
:1001D0006F5F7F4F80E01BD1B8CFFC0190818FEC27
:1001E000890F8930E0F4319620E030E0A901440F16
:1001F000551F220F331F220F331F220F331F240FCF
:10020000351F290F311D97FD3A95205331099191E2
:1002100080ED890F8A3050F3822F932F089580E06C
:1002200090E00895CF92DF92EF92FF920F931F9389
:10023000CF93DF93CDB7DEB764970FB6F894DEBFE8
:100240000FBECDBF8A01009799F120E0C62ED12CB8
:10025000EE24E394F12CEC0EFD1EE20EF11CB6012F
:1002600012D3FC01EB5DFD4F8081F7018083862F67
:10027000972F2F5F009761F7FE01E20FF11D1182AA
:10028000222389F0822F90E08150F801E90FF11DBF
:10029000A1E0B0E0AC0FBD1FA80FB11D3C913083B1
:1002A0009F5F8111F1CFF801E20FF11D108204C0B0
:1002B00080E3FA018083118264960FB6F894DEBF62
:1002C0000FBECDBFDF91CF911F910F91FF90EF90A7
:1002D000DF90CF900895EF920F93CF93DF93C82FC5
:1002E000D0E06896CC0FDD1FCC0FDD1FCC0FDD1FDB
:1002F000011103C08881888303C08881826088835C
:10030000898188698983453019F48A818A830BC081
:10031000463021F48A8182608A8305C0473019F40F
:100320008A8184608A8381E0E81203C08A818A839B
:1003300006C082E0E81203C08A8188608A832111A6
:1003400003C08A818A830BC0213021F48A818063B3
:100350008A8305C0223019F48A8180628A838A8167
:100360008A8301110BC09B0140E050E060E472E41D
:100370008FE090E09CD221502C830AC09B0140E08A
:1003800050E060E874E88EE190E091D221502C8337
:100390007894DF91CF910F91EF9008958130A9F07B
:1003A00018F0823019F10895AAEBB3E0EC91F0E077
:1003B000E65CFC4F60838C918E5F8F778C93E1ECD1
:1003C000F0E08081806280830895ACE3B4E0EC913A
:1003D000F0E0E454FC4F60838C918E5F8F778C93B8
:1003E000E9ECF0E08081806280830895A6EBB2E0C2
:1003F000EC91F0E0EA5CFD4F60838C918E5F8F772B
:100400008C93E1EDF0E080818062808308951F93FA
:10041000CF93DF93EB016881662339F0182F219683
:10042000812FBCDF69916111FBCFDF91CF911F91CB
:1004300008958130C1F018F0823049F13CC0AEEB34
:10044000B4E0EFEBF4E09C9180819817E1F3AFEB1F
:10045000B4E0EC91F0E0E25CFB4F80819C919E5F08
:100460009F779C930895A8E3B3E0E9E3F3E09C91C0
:1004700080819817E1F3A9E3B3E0EC91F0E0E85450
:10048000FD4F80819C919E5F9F779C930895A0E48F
:10049000B5E0E1E4F5E09C9180819817E1F3A1E4F7
:1004A000B5E0EC91F0E0E054FB4F80819C919E5FC1
:1004B0009F779C93089580E00895EF92FF921F9399
:1004C000CF93DF93182F7B01D0E0812FB2DFC82FAD
:1004D0008830F1F4DD23C9F3D15081E0E81AF10846
:1004E00068E0812F5BDF60E2812F58DF68E0812FB9
:1004F00055DFEBCF6C2F812F51DFF701C083DF5F1A
:10050000C70101967C01CD3001F7F701108203C0CD
:10051000D431C8F7EFCFDF91CF911F91FF90EF90CB
:10052000089560E272E080E072CF0895FF920F9329
:100530001F93CF93DF93CDB7DEB72D970FB6F89407
:10054000DEBF0FBECDBFF82E862F19821A821B8206
:100550008E010C5F1F4F9AE0F80111929A95E9F70E
:10056000AE014F5F5F4F6AE090E05CDEF801019002
:100570000020E9F731978BE19BE59183808312821C
:10058000BE016F5F7F4FC801B4D1F8010190002018
:10059000E9F731978DE690E091838083B8018F2D44
:1005A00036DF2D960FB6F894DEBF0FBECDBFDF91BC
:1005B000CF911F910F91FF900895EF92FF920F93AB
:1005C0001F93CF93DF93CDB7DEB767970FB6F8943D
:1005D000DEBF0FBECDBFF82E862FE42E19821A8201
:1005E0001B821C821D821E821F8218868E01075F5D
:1005F0001F4F9FE0F80111929A95E9F7AE014B5F0A
:100600005F4F6AE090E00EDEAE014F5F5F4F6AE041
:100610008E2D90E007DEF80101900020E9F7319778
:100620008BE19BE5918380831282BE016F5F7F4FD8
:10063000C8015FD1F80101900020E9F731978BE301
:1006400090E091838083BE016B5F7F4FC80151D1E1
:10065000F80101900020E9F7319788E490E0918358
:100660008083B8018F2DD3DE67960FB6F894DEBF76
:100670000FBECDBFDF91CF911F910F91FF90EF90F3
:1006800008951F920F920FB60F9211240BB60F927E
:100690008F93AF93BF93EF93FF93AEEBB4E0EC91E6
:1006A000F0E08091C600E25CFB4F80838C918E5F0E
:1006B0008F778C93FF91EF91BF91AF918F910F90B6
:1006C0000BBE0F900FBE0F901F9018951F920F92A8
:1006D0000FB60F9211240BB60F928F939F93AF9387
:1006E000BF93EF93FF93ABEBB3E0EC91F0E0E65CEC
:1006F000FC4F80818093C6008C918E5F8F778C93A6
:100700009C918091BA03981305C0E1ECF0E08081E0
:100710008F7D8083FF91EF91BF91AF919F918F91DA
:100720000F900BBE0F900FBE0F901F9018951F9249
:100730000F920FB60F9211240BB60F928F93AF93B7
:10074000BF93EF93FF93A8E3B3E0EC91F0E08091C7
:10075000CE00E854FD4F80838C918E5F8F778C9311
:10076000FF91EF91BF91AF918F910F900BBE0F90C2
:100770000FBE0F901F9018951F920F920FB60F92F9
:1007800011240BB60F928F939F93AF93BF93EF9368
:10079000FF93ADE3B4E0EC91F0E0E454FC4F8081D2
:1007A0008093CE008C918E5F8F778C939C918091FB
:1007B0003C04981305C0E9ECF0E080818F7D8083D4
:1007C000FF91EF91BF91AF919F918F910F900BBED1
:1007D0000F900FBE0F901F9018951F920F920FB69B
:1007E0000F9211240BB60F928F93AF93BF93EF9399
:1007F000FF93A0E4B5E0EC91F0E08091D600E054E6
:10080000FB4F80838C918E5F8F778C93FF91EF915C
:10081000BF91AF918F910F900BBE0F900FBE0F90B5
:100820001F9018951F920F920FB60F9211240BB6BE
:100830000F928F939F93AF93BF93EF93FF93A7EB89
:10084000B2E0EC91F0E0EA5CFD4F80818093D6004D
:100850008C918E5F8F778C939C918091B6029813C8
:1008600005C0E1EDF0E080818F7D8083FF91EF9105
:10087000BF91AF919F918F910F900BBE0F900FBEC4
:100880000F901F901895AA1BBB1B51E107C0AA1F10
:10089000BB1FA617B70710F0A61BB70B881F991F21
:1008A0005A95A9F780959095BC01CD010895A1E2D4
:1008B0001A2EAA1BBB1BFD010DC0AA1FBB1FEE1FDA
:1008C000FF1FA217B307E407F50720F0A21BB30B25
:1008D000E40BF50B661F771F881F991F1A9469F7A1
:1008E00060957095809590959B01AC01BD01CF01FD
:1008F0000895FB01DC010D900020E9F711970190AC
:0C0900000D920020E1F70895F894FFCF5D
:10090C00494E54524F4455434520554E204E554D5B
:10091C0045524F004845583A200042494E3A200073
:10092C001B5B324A0030313233343536373839417B
:06093C0042434445460061
:00000001FF
