:1000000071C000008EC000008CC000008AC00000DB
:1000100088C0000086C0000084C0000082C00000CC
:1000200080C000007EC000007CC000007AC00000DC
:1000300078C0000076C0000074C0000072C00000EC
:1000400070C000006EC000006CC000006AC00000FC
:1000500068C0000066C0000064C0000062C000000C
:1000600060C00000E2C1000005C200005AC00000EC
:1000700058C0000056C0000054C0000052C000002C
:1000800050C000004EC000004CC000004AC000003C
:1000900022C2000045C2000044C0000042C000006F
:1000A00040C000003EC000003CC000003AC000005C
:1000B00038C0000036C0000034C0000032C000006C
:1000C00030C000002EC000002CC000005AC200004A
:1000D0007DC2000026C0000024C0000022C0000035
:1000E00020C0000011241FBECFEFD1E2DEBFCDBF84
:1000F00000E00CBF12E0A0E0B2E0E6E7F6E000E0CE
:100100000BBF02C007900D92AC30B107D9F723E0C6
:10011000ACE0B2E001C01D92A839B207E1F702D00D
:10012000A8C26ECFCF93DF93CDB7DEB7C054D1094D
:100130000FB6F894DEBF0FBECDBFEE24E39400E00F
:1001400020E047E060E875E280E038D020E047E05A
:1001500060E875E282E032D060E072E082E0CAD00E
:100160002FEF83ED90E3215080409040E1F700C0F5
:10017000000060E072E082E0BDD02FEF83ED90E3FD
:10018000215080409040E1F700C0000063E072E041
:1001900082E0B0D02FEF83ED90E32150804090407B
:1001A000E1F700C00000BE016F5F7F4F82E0F8D032
:1001B000BE016F5F7F4F80E09DD0CECFEF920F9357
:1001C000CF93DF93C82FD0E06896CC0FDD1FCC0F04
:1001D000DD1FCC0FDD1F011103C08881888303C0A0
:1001E000888182608883898188698983453019F490
:1001F0008A818A830BC0463021F48A8182608A8397
:1002000005C0473019F48A8184608A8381E0E8124E
:1002100003C08A818A8306C082E0E81203C08A8113
:1002200088608A83211103C08A818A830BC02130B0
:1002300021F48A8180638A8305C0223019F48A817F
:1002400080628A838A818A8301110BC09B0140E00E
:1002500050E060E472E48FE090E0E9D121502C831B
:100260000AC09B0140E050E060E874E88EE190E055
:10027000DED121502C837894DF91CF910F91EF90B4
:1002800008958130A9F018F0823019F10895A0ED99
:10029000B2E0EC91F0E0E057FD4F60838C918E5F0F
:1002A0008F738C93E1ECF0E080818062808308950D
:1002B000A2E1B3E0EC91F0E0EE52FD4F60838C914F
:1002C0008E5F8F738C93E9ECF0E080818062808395
:1002D0000895ACE4B2E0EC91F0E0E45FFD4F6083A0
:1002E0008C918E5F8F738C93E1EDF0E08081806262
:1002F000808308951F93CF93DF93EB01688166237A
:1003000039F0182F2196812FBCDF69916111FBCF45
:10031000DF91CF911F9108958130C1F018F08230A4
:1003200049F13CC0A4E5B3E0E5E5F3E09C918081B0
:100330009817E1F3A5E5B3E0EC91F0E0EC5EFC4F3B
:1003400080819C919E5F9F739C930895AEE8B2E07C
:10035000EFE8F2E09C9180819817E1F3AFE8B2E01A
:10036000EC91F0E0E25BFD4F80819C919E5F9F737A
:100370009C930895A6E9B3E0E7E9F3E09C918081BE
:100380009817E1F3A7E9B3E0EC91F0E0EA5AFC4FEB
:1003900080819C919E5F9F739C93089580E0089557
:1003A000FF920F931F93CF93DF93F82EEB018111F0
:1003B0001EC000E080E0B0DF182F883069F5002310
:1003C000C9F30150219768E080E05BDF60E280E0E4
:1003D00058DF68E080E055DFEDCF612F80E051DF2E
:1003E00018830F5F21961D3029F7188218C000E08E
:1003F00010E08F2D91DF8D3011F40F5F03C08A3034
:1004000009F41F5F2196FE0131978083123010F4AA
:10041000023078F3188203C0003428F7DECFDF9172
:10042000CF911F910F91FF9008951F920F920FB6D9
:100430000F9211240BB60F928F93AF93BF93EF934C
:10044000FF93A4E5B3E0EC91F0E08091C600EC5E90
:10045000FC4F80838C918E5F8F738C93FF91EF9113
:10046000BF91AF918F910F900BBE0F900FBE0F9069
:100470001F9018951F920F920FB60F9211240BB672
:100480000F928F939F93AF93BF93EF93FF93A1ED41
:10049000B2E0EC91F0E0E057FD4F80818093C60020
:1004A0008C918E5F8F738C939C918091D002981366
:1004B00005C0E1ECF0E080818F7D8083FF91EF91BA
:1004C000BF91AF919F918F910F900BBE0F900FBE78
:1004D0000F901F9018951F920F920FB60F92112434
:1004E0000BB60F928F93AF93BF93EF93FF93AEE84A
:1004F000B2E0EC91F0E08091CE00E25BFD4F8083B2
:100500008C918E5F8F738C93FF91EF91BF91AF9120
:100510008F910F900BBE0F900FBE0F901F901895EC
:100520001F920F920FB60F9211240BB60F928F935A
:100530009F93AF93BF93EF93FF93A3E1B3E0EC914D
:10054000F0E0EE52FD4F80818093CE008C918E5F63
:100550008F738C939C9180911203981305C0E9ECE2
:10056000F0E080818F7D8083FF91EF91BF91AF910B
:100570009F918F910F900BBE0F900FBE0F901F9009
:1005800018951F920F920FB60F9211240BB60F926F
:100590008F93AF93BF93EF93FF93A6E9B3E0EC91F2
:1005A000F0E08091D600EA5AFC4F80838C918E5FF8
:1005B0008F738C93FF91EF91BF91AF918F910F90BB
:1005C0000BBE0F900FBE0F901F9018951F920F92A9
:1005D0000FB60F9211240BB60F928F939F93AF9388
:1005E000BF93EF93FF93ADE4B2E0EC91F0E0E45FF2
:1005F000FD4F80818093D6008C918E5F8F738C939A
:100600009C9180914C02981305C0E1EDF0E080814F
:100610008F7D8083FF91EF91BF91AF919F918F91DB
:100620000F900BBE0F900FBE0F901F901895A1E278
:100630001A2EAA1BBB1BFD010DC0AA1FBB1FEE1F5C
:10064000FF1FA217B307E407F50720F0A21BB30BA7
:10065000E40BF50B661F771F881F991F1A9469F723
:1006600060957095809590959B01AC01BD01CF017F
:060670000895F894FFCF8D
:0C0676000D0A0041542B4353510D0000AD
:00000001FF
