S00C0000746573742E7372656358
S113000071C0000081C000007FC000007DC00000FE
S11300107BC0000079C0000077C0000075C00000FC
S113002073C0000071C000006FC000006DC000000C
S11300306BC0000069C0000067C0000065C000001C
S113004063C000009DC000005FC000005DC00000F0
S11300505BC0000059C0000057C0000055C000003C
S113006053C0000051C000004FC000004DC000004C
S11300704BC0000049C0000047C0000045C000005C
S113008043C0000041C000003FC000003DC000006C
S11300903BC0000039C0000037C0000035C000007C
S11300A033C0000031C000002FC000002DC000008C
S11300B02BC0000029C0000027C0000025C000009C
S11300C023C0000021C000001FC000001DC00000AC
S11300D01BC0000019C0000017C0000015C00000BC
S11300E013C0000011241FBECFEFD1E2DEBFCDBF8D
S11300F000E00CBF22E0A0E0B2E001C01D92A930F4
S1130100B207E1F702D0ABC07BCFCF93DF93CDB77B
S1130110DEB703D010920802FFCFCF93DF93CDB7A1
S1130120DEB780E890E020E830E0F9012081FC01AE
S1130130208381E890E021E830E0F90120812A6001
S1130140FC0120838FE690E02FE630E0F901208166
S11301502260FC01208388E890E02CE930E0FC0177
S113016031832083789484E290E02FEFFC01208394
S113017085E290E0FC0110820000DF91CF910895A8
S11301801F920F9200905F000F92112400905B0069
S11301900F922F933F934F935F936F938F939F93FC
S11301A0EF93FF93CF93DF931F92CDB7DEB71982FE
S11301B038C08981882F90E08F5F9D4FFC0190812A
S11301C0809100028917A8F485E290E025E230E0EE
S11301D0F9012081622F2981422F50E021E030E093
S11301E002C0220F331F4A95E2F7262BFC0120831D
S11301F015C085E290E025E230E0F9012081622F0C
S11302002981422F50E021E030E002C0220F331F49
S11302104A95E2F720952623FC01208389818F5F8C
S113022089838981883028F2809100028F5F8093CE
S1130230000200000F90DF91CF91FF91EF919F9109
S11302408F916F915F914F913F912F910F900092F9
S11302505B000F9000925F000F901F901895F89428
S1050260FFCFCA
S9030000FC
