S01700004763634170706C69636174696F6E312E737265635B
S113000071C0000079C0000077C0000075C0000016
S113001073C0000071C000006FC000006DC000001C
S11300206BC0000069C0000067C0000065C000002C
S113003063C0000061C000005FC000005DC000003C
S11300405BC0000059C0000057C0000055C000004C
S113005053C0000051C000004FC000004DC000005C
S11300604BC0000049C0000047C0000045C000006C
S113007043C0000041C000003FC000003DC000007C
S11300803BC0000039C0000037C0000035C000008C
S113009033C0000031C000002FC000002DC000009C
S11300A02BC0000029C0000027C0000025C00000AC
S11300B023C0000021C000001FC000001DC00000BC
S11300C01BC0000019C0000017C0000015C00000CC
S11300D013C0000011C000000FC000000DC00000DC
S11300E00BC0000011241FBECFEFD1E2DEBFCDBF95
S11300F000E00CBF41D043C083CF982F84BC85BCA3
S113010005BC2ED048E033D085BD892F29D047E0E7
S11301102ED085BD892F24D046E029D085BD892FD6
S11301201FD045E024D085BD892F1AD044E01FD0CC
S113013085BD892F15D043E01AD085BD892F10D0F5
S113014042E015D085BD892F0BD041E010D085BD8C
S1130150892F06D0887085BD03D088E085BD0895B9
S113016023E038E23A95F1F72A95E1F70895880FEC
S11301704A95E9F78870089581E3BFDFFDCFF894CD
S1050180FFCFAB
S9030000FC
